:1000000000020400000000000000000000000000EA
:1000100000000000000000000000000000000000E0
:1000200000000000000000000000000000000000D0
:1000300000000000000000000000000000000000C0
:1000400000000000000000000000000000000000B0
:1000500000000000000000000000000000000000A0
:100060000000000000000000000000000000000090
:100070000000000000000000000000000000000080
:100080000000000000000000000000000000000070
:100090000000000000000000000000000000000060
:1000A0000000000000000000000000000000000050
:1000B0000000000000000000000000000000000040
:1000C0000000000000000000000000000000000030
:1000D0000000000000000000000000000000000020
:1000E0000000000000000000000000000000000010
:1000F0000000000000000000000000000000000000
:1001000000000000000000000000000000000000EF
:1001100000000000000000000000000000000000DF
:1001200000000000000000000000000000000000CF
:1001300000000000000000000000000000000000BF
:1001400000000000000000000000000000000000AF
:10015000000000000000000000000000000000009F
:10016000000000000000000000000000000000008F
:10017000000000000000000000000000000000007F
:10018000000000000000000000000000000000006F
:10019000000000000000000000000000000000005F
:1001A000000000000000000000000000000000004F
:1001B000000000000000000000000000000000003F
:1001C000000000000000000000000000000000002F
:1001D000000000000000000000000000000000001F
:1001E000000000000000000000000000000000000F
:1001F00000000000000000000000000000000000FF
:10020000FFFFFF00FFFFFF000000000000000000F4
:1002100000000000000000000000000000000000DE
:1002200000000000000000000000000000000000CE
:1002300000000000000000000000000000000000BE
:1002400000000000000000000000000000000000AE
:10025000000000000000000000000000000000009E
:10026000000000000000000000000000000000008E
:10027000000000000000000000000000000000007E
:10028000000000000000000000000000000000006E
:10029000000000000000000000000000000000005E
:1002A000000000000000000000000000000000004E
:1002B000000000000000000000000000000000003E
:1002C000000000000000000000000000000000002E
:1002D000000000000000000000000000000000001E
:1002E000000000000000000000000000000000000E
:1002F00000000000000000000000000000000000FE
:1003000000000000000000000000000000000000ED
:1003100000000000000000000000000000000000DD
:1003200000000000000000000000000000000000CD
:1003300000000000000000000000000000000000BD
:1003400000000000000000000000000000000000AD
:10035000000000000000000000000000000000009D
:10036000000000000000000000000000000000008D
:10037000000000000000000000000000000000007D
:10038000000000000000000000000000000000006D
:10039000000000000000000000000000000000005D
:1003A000000000000000000000000000000000004D
:1003B000000000000000000000000000000000003D
:1003C000000000000000000000000000000000002D
:1003D000000000000000000000000000000000001D
:1003E000000000000000000000000000000000000D
:1003F00000000000000000000000000000000000FD
:10040000EF4D23000EFF27000E01880000000000C2
:10041000000020000000E000020032000001200087
:100420002002880014000700A40007000000E0007C
:1004300003003A00C09726000100200002003700A8
:100440000000200001002000810F70000100320038
:1004500014000700000020000000E000020032004D
:100460000000020000000000248A020000000000DA
:100470000040DA000000FE004440A9006041200076
:100480000000E000030032000020200090018800FE
:100490004440A800000006008A1F78008B1F7800E7
:1004A00000000600A1028800800478000000EB0034
:1004B0001F003700E284440054A0B4009905BA003C
:1004C000E284440054A0B4009906BA00E2844400D7
:1004D00054A0B4000006EB00476FDE00FD07B20039
:1004E000AE018800636CE10003003A00EAFF0700F8
:1004F0000000EB000E003700606CE10008003A00DD
:10050000004DEB000A05E800020039003420EC0041
:100510000AF0A0008B05E900F9FF3E000400370057
:100520006168E100010032000086EB000B0007006B
:1005300019C7BA001905BA000E04E00003003A001A
:100540000A00E000DBFF3A0000000600FE07B200F0
:10055000AE0288008A047800F5FF37000CD0A300B3
:10056000E20F4D001C00390089027800354DBA00B9
:100570000A05E800020039003420EC000AF0A0006F
:100580008B05E9000F003200254DBA000A05E8008E
:10059000020039003420EC000AF0A0008B05E900CD
:1005A000080032000C00E0000600320015CDBA0051
:1005B0000A05E800020039003420EC000AF0A0002F
:1005C0008B05E9008984E80054A0B4000B00E0002A
:1005D000E2FF3A00000006009902BA00055D7800CB
:1005E0008B05E900F7FF3200C82ADE00055D7800C0
:1005F0008B05E900F3FF32000C00E000F1FF320050
:1006000019DDBA00EEFF37000A00FA00E20F5000D1
:100610001F003E00E0A68100E10F500006003200FE
:1006200080232000452320002323200004232000D2
:100630000000E00004003A00802220004522200053
:1006400023222000042220000600280094036300D7
:1006500002003A0007087800140A730013A8A300E8
:1006600001003A0013A0A000020078000500370046
:100670001388A300FEFF32003102FB00840A7800D9
:100680000000E9000000E000F9FF3A000800370030
:1006900033002000B3BF9F00C0BF9F00D1BF9F00A9
:1006A000E2BF9F006A8057004A0407006FB99700B5
:1006B000020078000080FA0000000600000005003B
:1006C0005400F800A1028800800278006200400017
:1006D000E08048003549BA003204E0000410A70069
:1006E000100032008301E9000E0032002549BA00F3
:1006F0003204E0000410A7000A0032008301E90080
:10070000080032000408A300EEFF320015C9BA0049
:100710003204E0000410A700020032008301E90067
:10072000E8FF3A005400F900000006006022B8001B
:10073000060220000000D0008180D2000482D20096
:100740008582D2000000A0000202520083825A007B
:10075000030031000202420083824A000000A1002F
:100760000603E900F3FF3A00000006000C00FA005F
:10077000889FBE0000047800F0FF2700D0BF9F00D4
:100780008004EB0099BF9F0088BF9F00A8BF9F0017
:10079000200C2000B0BF9F0078815700CFB0970099
:1007A00070805700100007000FB8970009487800C4
:1007B0008FB89700088050004F04BE000080FA00F8
:1007C00000000600D0019000028151004240A900C3
:1007D0000300340010017800014978000208E800A5
:1007E0000100780000000600F6874700889FBE00E1
:1007F0008A9FBE008C9FBE008E1F78000005780087
:10080000020778008004EB009F0237000101E80036
:1008100092B79F0052C2B300824F500003003A00CB
:100820000000EB000004EB0012003700BA0090005B
:100830000000FB000168A3000700320009017800F6
:10084000800078000A007800DEFF07000000E0006A
:1008500005003A008B0237008A0078002C0307005D
:10086000E10F4000870232008904E800850237006A
:100870000000E8000103E8008003EB006102B8001B
:1008800006014200E6417A00D4C2B30084CF510091
:100890000C00320007003C006D42520084CF510032
:1008A0000A0032006B42420084CF51000D003A0032
:1008B0000800370004C3B30084CF510009003A0098
:1008C000060037000830A000E9FF37000800A0004C
:1008D000E7FF37000810A000E5FF37000820A00060
:1008E000E3FF3700020378000818A300010032007C
:1008F0000800A1000838A300010032000820A10070
:100900000300FB000003B100E90F500014003E009B
:100910006000B800860578006A01B900D2B79F0070
:10092000E3B79F00610BB8006B407B000000FB0049
:100930000003B100020040000B02E8008002EB005F
:10094000040143008100E800E6417A008301FB00D6
:100950000303B100E98F5100EFFF360006003700B6
:100960000000EB00A1C2B30081CF510002003A00A9
:100970004E0078000201E8008005EB00E1C2B30000
:1009800092CF10000A003A0008E0A0008200780030
:10099000A3C2B300D1CF1100030032008000EB00EE
:1009A000C2B79F0006003700CE0578000101E800BD
:1009B0008001EB00120037006A5AB90084854100BB
:1009C000CFB197000303E8008003EB00610AB80091
:1009D0000401430085814B00D2B79F00E3B79F001D
:1009E000E6417A008100E8008301FB000303B100C7
:1009F000E98F5100F0FF36005FB19700ECFF370040
:100A0000611AB800E2407A000203E80004034300E0
:100A100096B79F00C4C6B30084CF500025003200B3
:100A20000F003C0032C6B30082CF50008900320074
:100A300004003C000104E000170232006B41510049
:100A40000F00370042C6B30082CF500017003200BB
:100A50006541410082CF500095003A0013003700F5
:100A600032C7B30082CF50001C00320007003C00A8
:100A70006441510082CF5000110032000241E80071
:100A800082CF50008A003A001000370052C7B300EE
:100A900082CF50008B0032006341410082CF500072
:100AA00083003A00E1DF9F000A003700E1DF9F008A
:100AB000860037000840A0008301E800D0FF37001F
:100AC000E1DF9F000860A00080003700E1DF9F00A9
:100AD0000850A0000870A0007C003700E1DF9F00F4
:100AE000CE007800010678000100E00001003A0025
:100AF0006C2D23000C0178008000EB000100370012
:100B00008100E800E2C178000304E000FCFF3A0045
:100B1000810678000B00E000030032008D8F550045
:100B2000010031008B0678008005EB008D0F50002E
:100B3000010036008D055000680464002A003A0068
:100B4000110037003A0090000068A300070032004F
:100B500009017800010220000A00780019FF07004F
:100B60000000E00006003A00060037008A00780026
:100B70000002200066020700E10F40000100320081
:100B80008904E8008B05E9000B00E000EDFF3A0066
:100B90008085EB00140037003A0090000068A30045
:100BA000090032000C007800B000FB00000678005D
:100BB000090178000A00780002FF07000000E00049
:100BC00008003A00080037008C0078003100FB0074
:100BD000010678008A0078004D020700E10F40000E
:100BE000010032008904E8000D0078008006E90069
:100BF0000000E000E8FF3A000800E000A101320038
:100C0000110037003A0090000068A300070032008E
:100C100009017800010220000A007800E9FE0700BF
:100C20000000E00006003A00060037008A00780065
:100C30000002200036020700E10F400001003200F0
:100C40008904E8008B05E9000B00E000EDFF3A00A5
:100C50008C0137004E017800CF91DE00C81ADE000B
:100C6000C818DD004812DE0004827000E4DF9F0037
:100C70000848A300080032000404E0000600320027
:100C8000E14F420004003200F4DF9F0082E79F0042
:100C90002D00200002003700F2DF9F001D00200021
:100CA000E2FD2F000F0141000206E80099FF370026
:100CB000E1DF9F00ECFD2F000F0646001D00200025
:100CC00094FF3700E1DF9F00080CB30008017800B3
:100CD000020CB200F00064000200E0000D003A00D7
:100CE0000100E000020032004E06BE0002003700A4
:100CF0004E067800CFE6DE00E00F5600E08F5E0083
:100D00000A003D003800B30060061600E0861E00B1
:100D1000060037000100E000020032004E06BE006F
:100D2000020037004E0678008006EB000B00E00062
:100D300005003A008C8576000BF0A7008B05EA00D1
:100D40008B05E900CF5DDE0088017800030CB2005E
:100D5000D3B79F0001042000818F5100260032008C
:100D600003003C000300E0000800320030003700C0
:100D7000010820005FB29700810F5200100032007E
:100D8000010C2000810F520029003A0011C0B3006D
:100D90000001EB000201E8004212DD00E32D230018
:100DA00083014200B30F5600A38F5E001F0039007D
:100DB0008140E800EACF5000F6FF3A001B00370000
:100DC00011C0B3000201200003002000820F560072
:100DD000838F5E0015003900441ADD00CC11DE005F
:100DE000830172004411DD008140E800E8CF50002B
:100DF000F6FF3A000D00370011C0B300820020005A
:100E000003002000820F5600838F5E000700390028
:100E1000431ADD00CD11DE00830172004311DD00B5
:100E20008140E800EBCF5000F6FF3A00E1DF9F0081
:100E30006FD997008200FB008B8F500002003D00AD
:100E4000EBDF9F0003003700818F550001003D005C
:100E5000810578000000E00003003200E300640038
:100E6000010032000000E90008E8A300050032009C
:100E70008B0F5000020034000B00500001003700BF
:100E80000000EB00EFD997008300FB000002EB00AD
:100E9000C4B79F00810F5000020034008100500051
:100EA000C1B79F000828A300400032006101640020
:100EB0000818A3000F0032003A0090000068A30059
:100EC00006003200B10220000200E0000100320002
:100ED0008180E800090178000D003700B002200091
:100EE0000200E000010032000080E8008A00780083
:100EF0000E0037000200E000100032003A009000BF
:100F00000068A300070032000901780001022000F8
:100F10000A0078002BFE07000000E00006003A00FF
:100F2000060037008A0078000002200078010700E0
:100F3000E10F4000010032008904E8004FB0970043
:100F40000000E000B5003200ACB79F00BDB79F00C5
:100F5000800678003A0090000068A3000700320085
:100F600009017800010320000A00780015FE07003F
:100F70000000E00006003A00060037008A00780012
:100F80000003200062010700E10F40000100320071
:100F90008904E8008D06E900EEFF3A00CDB79F0016
:100FA0002FB69700BFB697009C003700CFB19700CF
:100FB0000300E0001A0032000838A30018003A00CD
:100FC000ACB79F00BDB79F00830678003A00900041
:100FD0000068A30007003200090178000102200028
:100FE0000A007800F7FD07000000E00006003A0064
:100FF000060037008A007800000220004401070044
:10100000E10F4000010032008904E8008D06E9008C
:10101000EEFF3A00CDB79F002FB69700BFB69700FE
:10102000610164000818A3000E0032003A0090002D
:101030000068A30006003200B10220000200E000B8
:10104000010032008180E800090178006900370062
:10105000B00220000200E0006B0032000080E800D7
:10106000690037000200E0006C0032003A00900096
:101070000068A3000300320009017800010220008B
:101080005C0037008A007800000220005F00370013
:101090008B05E90000042000DFB09700808F50002E
:1010A0004200320003003C000100E0000800320072
:1010B00049003700000820005FB19700800F510001
:1010C0002B003200000C2000800F510042003A003B
:1010D000E02D23006159B9000848A3001500320033
:1010E000421ADD00CE12DE00850272004212DD00DF
:1010F000040040001002BE000401BE000C00BE004F
:10110000F4B79F0085BF9F0088FD0700E0DF9F00C8
:101110000000FB00CF80DE007FB297008FBA9700FF
:101120000401BE00BF0107000006560081865E0074
:101130000B003700421ADD00CE12DE00850272007D
:101140004212DD0060017A00110009000286D80019
:10115000A2002000110009000280D800E1DF9F00FA
:10116000EFD997000343B000E3DF9F001A00370078
:10117000502C23000858A30001003200402B23000C
:10118000C258DD000C01BE008100E90003003300FD
:101190008301D1000281D300FBFF3700EF00610023
:1011A000E0C07800E1DF9F000B0037006358B90012
:1011B0000C01BE00000278000402E90003003300C5
:1011C0008301D1000281D300FBFF3700674061003B
:1011D0000043B000E0DF9F00BA0090006FD9970095
:1011E0000200FB000168A30007003200090178003B
:1011F000800078000A00780072FD07000000E0001F
:1012000005003A00050037008A007800C00007009A
:10121000E10F4000010032008904E8000B00E0000B
:101220009BFF3A000838A30016003200CFB19700A8
:101230000300E00013003400030478003A0090003B
:101240000068A300070032000901780001022000B5
:101250000A0078005BFD07000000E00006003A008D
:10126000060037008A00780000022000A80007006E
:10127000E10F4000010032008904E8000804E900A1
:10128000EEFF3A009FB0970011407800E0DF9F002A
:101290000004E0005DFD3A00090078004F07780087
:1012A0004F06BE004F05BE004F04BE006F01B100E7
:1012B00000000600800178000219200011000900DA
:1012C0008281D8008000FD0000017800110020001C
:1012D0000200E0000A003200638161008000EB0040
:1012E00007003A0042062000110009008281D80060
:1012F00001F0A7008100EA008100EA00CF08DE00CB
:10130000010078000000060011BF20000180B90034
:1013100012442F0000004100420620001100090085
:101320000280D80000000600881F780000047800C2
:101330004242DE0003192000110009000384D80096
:10134000000178008001EB0002014200E0814900C9
:10135000D61620000643B8000202430083824B00E9
:1013600042062000110009000284D8008000FD0020
:1013700001005200E0805A004F047800000006008F
:10138000889FBE008A9FBE000004BE000205780050
:101390000900E800DCFF07000A0540008005EB00BB
:1013A000E18F54000A00360008007800C1FF0700F2
:1013B00022002000030020000000E00002003200B4
:1013C00012002000030020000205550083855D0007
:1013D0000800E900D4FF07000000450081804D00AF
:1013E0004F05BE004F04BE0000000600889FBE00EF
:1013F0008A9FBE008C9FBE0000047800D804900035
:10140000A3FB2F00898141000080EB008080EB006E
:10141000E2102000828F510032003E00C076200092
:101420000080440038019000C8009000D4FF0700FD
:101430000006BE00120020008000EB00207B200090
:10144000CFFF07000005560081855E007200200076
:10145000030020000A00BE00E00007006400400016
:10146000E08048007200200003002000DB0007003D
:1014700060049800B076200000804400AAFF0700B6
:101480000C06E900000656007C049800820120004A
:10149000030020000A00BE00E200070028019000BF
:1014A000CF91DE000000410081804900C20320008E
:1014B00003002000DB00070018019000CF91DE0040
:1014C0000000410081804900C20320000300200089
:1014D000D400070018017800CF91DE000000410021
:1014E000818049004F06BE004F05BE004F04BE007C
:1014F00000000600B041780031C1510002003A00FE
:101500000304E000FBFF3A000200FB0000000600BD
:10151000889FBE0001047800B80090008084EB0032
:101520000118A3003D003200180190000198A300AB
:1015300002003A000200E00038003A000190A000EA
:101540003104980080047800F90FB2000200E00036
:1015500002003A0028009000000C7800EA8F540046
:1015600005003A000178A30003003A0088007800E3
:10157000D0002000E6FF0700180090006102B900CB
:1015800058019000E8019000820F5200838F5A00AA
:101590000B0032000000E8001004980018007800EA
:1015A00009487800000CE80011C0B300404D23004A
:1015B00001487800EA8F540018003A00050037000F
:1015C00088007800094078003A000700800478001D
:1015D00012003700380090000088A3000F0032008E
:1015E00018019000A80090004800900006FC070039
:1015F00098009000810F50000400320038009000E5
:101600000003B300300498008084EB000000EB007E
:101610001004980028009000000C78000900780061
:101620004F04BE00000006000202BE008001EB0075
:101630000400370061F079008301E8006102520084
:10164000E0825A00E00F5200E08F5A00F9FF3A00A2
:10165000000006000202BE008001EB00040037001B
:1016600001F079008301E80061025200E0825A0033
:10167000E00F5200E08F5A00F9FF3A000000060028
:10168000800078000000EB006101B8008102E800F2
:10169000828242000000E800614179000204E0001B
:1016A000F9FF3A008180EA0001804200CF80DE002D
:1016B000000006000200FA00889FBE00A0FF9F0005
:1016C0000104780038009000800478000904B2001A
:1016D0003B003A00E200600005003A000003B3005E
:1016E00030049800110498000080EB0036003700A9
:1016F00058019000E8019000E00F5100E08F590080
:1017000007003A001200200003002000E680570086
:1017100048009000BCFB070019049800280037001F
:10172000A80090000100E0000B003A00714D23007A
:1017300021049800010C7800220020000300200002
:1017400052049800630498002100200011049800BE
:101750000030A0003004980018019000CF91DE0006
:10176000A800900048009000A7FB07002800900008
:101770008080EB0011049800AFF8970001487800D2
:10178000000CE8002FF89700EA4F50000C003A00D8
:10179000380090000088A300090032001801900072
:1017A000CF91DE00A80090004800900096FB070053
:1017B0000000EB0010049800A8009000010C7800D5
:1017C000AFF897000100FB004F04BE000080FA0054
:1017D0000000060000C0DA0000000600811F78004B
:1017E0000100E00002003D0060001000E0801800F1
:1017F0000300E00002003D0060011100E0811900DB
:10180000050007004F00E00002003B0060001000F0
:10181000E080180000000600C4FB07000400BE00C2
:1018200000000600020AB900001BB9000200B8005F
:1018300081004200810043000000060000C100005A
:101840008140000001C000008041000001C0000094
:101850008041000000C100008140000001C0000084
:101860008041000000C100008140000000C1000074
:101870008140000001C000008041000001C0000064
:101880008041000000C100008140000000C1000054
:101890008140000001C000008041000000C1000044
:1018A0008140000001C000008041000001C0000034
:1018B0008041000000C100008140000001C0000024
:1018C0008041000000C100008140000000C1000014
:1018D0008140000001C000008041000000C1000004
:1018E0008140000001C000008041000001C00000F4
:1018F0008041000000C100008140000000C10000E4
:101900008140000001C000008041000001C00000D3
:101910008041000000C100008140000001C00000C3
:101920008041000000C100008140000000C10000B3
:101930008140000001C000008041000001C00000A3
:101940008041000000C100008140000000C1000093
:101950008140000001C000008041000000C1000083
:101960008140000001C000008041000001C0000073
:101970008041000000C100008140000000C1000063
:101980008140000001C000008041000001C0000053
:101990008041000000C100008140000001C0000043
:1019A0008041000000C100008140000000C1000033
:1019B0008140000001C000008041000000C1000023
:1019C0008140000001C000008041000001C0000013
:1019D0008041000000C100008140000001C0000003
:1019E0008041000000C100008140000000C10000F3
:1019F0008140000001C000008041000001C00000E3
:101A00008041000000C100008140000000C10000D2
:101A10008140000001C000008041000000C10000C2
:101A20008140000001C000008041000001C00000B2
:101A30008041000000C100008140000000C00000A3
:101A4000C1010000C303000002C20000C60600007E
:101A500007C7000005C50000C4040000CC0C00004E
:101A60000DCD00000FCF0000CE0E00000ACA00000E
:101A7000CB0B0000C909000008C80000D8180000FE
:101A800019D900001BDB0000DA1A00001EDE00007E
:101A9000DF1F0000DD1D00001CDC000014D400006E
:101AA000D5150000D717000016D60000D21200008E
:101AB00013D3000011D10000D0100000F03000005E
:101AC00031F1000033F30000F232000036F600007E
:101AD000F7370000F535000034F400003CFC00004E
:101AE000FD3D0000FF3F00003EFE0000FA3A00000E
:101AF0003BFB000039F90000F838000028E800003E
:101B0000E9290000EB2B00002AEA0000EE2E00007D
:101B10002FEF00002DED0000EC2C0000E42400006D
:101B200025E5000027E70000E626000022E200008D
:101B3000E3230000E121000020E00000A06000009D
:101B400061A1000063A30000A262000066A600007D
:101B5000A7670000A565000064A400006CAC00004D
:101B6000AD6D0000AF6F00006EAE0000AA6A00000D
:101B70006BAB000069A90000A868000078B80000FD
:101B8000B9790000BB7B00007ABA0000BE7E00007D
:101B90007FBF00007DBD0000BC7C0000B47400006D
:101BA00075B5000077B70000B676000072B200008D
:101BB000B3730000B171000070B0000050900000DD
:101BC000915100009353000052920000965600007D
:101BD0005797000055950000945400009C5C00004D
:101BE0005D9D00005F9F00009E5E00005A9A00000D
:101BF0009B5B00009959000058980000884800003D
:101C0000498900004B8B00008A4A00004E8E00007C
:101C10008F4F00008D4D00004C8C0000448400006C
:101C2000854500008747000046860000824200008C
:101C30004383000041810000804000001201000049
:101C4000000200000200000000080000D8040000AC
:101C50000A00000000010000010200000001000075
:101C600009020000430000000201000000C0000063
:101C70003209000004000000000100000202000020
:101C80000100000005240000001000000104000015
:101C900024020000020500002406000000010000EC
:101CA000052400000100000001070000058100007C
:101CB0000308000000020000090400000100000009
:101CC000020A0000000000000007000005020000FA
:101CD0000240000000000000070500008202000032
:101CE000400000000004000003090000043400006C
:101CF000034D000000690000006300000072000056
:101D0000006F000000630000006800000069000030
:101D1000007000000020000000540000006500007A
:101D20000063000000680000006E0000006F00000B
:101D3000006C0000006F00000067000000790000E8
:101D40000020000000490000006E00000063000059
:101D5000002E000000340000034300000044000097
:101D6000004300000020000000520000005300006B
:101D7000002D00000032000000330000003200009F
:101D80000020000000450000006D0000007500000C
:101D9000006C000000610000007400000069000099
:101DA000006F0000006E00000020000000440000F2
:101DB00000650000006D0000006F000000000000E2
:101DC00003000000050000005C00000009000000A6
:101DD00002000000FF000000FF00000007000000FC
:101DE0000C0000000E0000001000000012000000B7
:101DF0001400000016000000180000001A00000087
:101E00001C0000001E000000200000002200000056
:101E10002400000026000000280000002A00000026
:101E20002C0000002E0000003000000032000000F6
:101E30003400000036000000380000003A000000C6
:101E40003E00000040000000420000003C00000096
:101E50004600000044000000480000005F00000051
:101E60004A0000004C0000004E000000500000003E
:101E7000520000005400000056000000580000000E
:101E80000400000006000000FF0000000A0000003F
:101E9000FF000000FF000000FF000000FF00000046
:101EA0000B0000000D0000000F00000011000000FA
:101EB00013000000150000001700000019000000CA
:101EC0001B0000001D0000001F000000210000009A
:101ED000230000002500000027000000290000006A
:101EE0002B0000002D0000002F000000310000003A
:101EF000330000003500000037000000390000000A
:101F00003D0000003F000000410000003B000000D9
:101F10004500000043000000470000005E00000094
:101F2000490000004B0000004D0000004F00000081
:101F30005100000053000000550000005700000051
:101F400025730000257300000025000073250000A4
:101F50007325000073000000257300002225000097
:101F6000732200002573000000530000534400005A
:101F700041430000205300007973000074650000A5
:101F80006D2000006973000020740000757200006D
:101F90006E650000642000006F6E000020250000C8
:101FA000630000002573000020250000630000008E
:101FB0004E7500006D620000657200002041000057
:101FC0006464000065640000207300007563000015
:101FD0006365000073730000667500006C6C0000A0
:101FE000792E000025630000004300004D470000EB
:101FF0004C00000025640000202500007300000054
:102000002564000020250000730A00000000000085
:10201000001F00001C1F00001E1F00001E1F0000EC
:102020001F1E00001F1E00001F0000000006000011
:10203000010B00000204000003040000040400007F
:10204000050500000604000001020000040800006D
:102050001020000040800000A1A00000A9A80000FE
:10206000A5A40000ADAC00000000FA00400620006E
:10207000A0A48900604923008040EB00014878005B
:102080009EC0A9000080EB00702488000080EB0057
:1020900050248800AA24EF00420020000300200002
:1020A0008000EB00C04A20002A0B02000000000064
:1020B0002000200030258800A824EF008644A900D5
:1020C000F009200080248800F009200060248800A6
:1020D0008804A800004023004800DE00C0248800D7
:1020E000603D23008040EB0001487800110037007C
:1020F000603D2300104078000080FB006101B900C2
:102100004218DD00CE10DE00810070004210DD00BC
:1021100002402300020140006000B8000089BE00B8
:10212000603D2300104078008040E800603D2300BF
:1021300001487800603D230010407800EB4F5000CC
:10214000EBFF36009424A8009624EF0094A4A90085
:102150009424A9001000370080002000502488003B
:10216000203A23008040EB0001487800603A2300C9
:102170008040EB0001487800703A230090407800DE
:10218000E0C0600001487800803A23009040780069
:10219000E0C06000014878005024800068006000C2
:1021A0000000E000ECFF3A0010002000E09D8900F4
:1021B00010002000F09D89000000EB00009E8900C7
:1021C0000000EB00109E89000000EB00609D89007C
:1021D000603D23008040EB00014878002500370077
:1021E000603D2300104078000080FB00CF80DE00BF
:1021F00032392300000041008040EB0001487800A4
:10220000603D2300104078000080FB00CF80DE009E
:1022100062392300000041008040EB000148780053
:10222000603D2300104078000080FB00CF80DE007E
:10223000223B2300000041008040EB000148780071
:10224000603D2300104078000080FB00CF80DE005E
:10225000523B2300000041008040EB000148780021
:10226000603D2300104078008040E800603D23007E
:1022700001487800603D230010407800E24F500094
:10228000D7FF36003039230021C0B3000148780061
:10229000D000200050258800603C230010A0890059
:1022A0000040230081C0B3000148780010402300A3
:1022B00041C8B30001487800E03823008040EB00BB
:1022C000014878000000EB00609C89000080FA0063
:1022D000000006000000FA00202480006800600072
:1022E0000000E00006003A009424EF008C24EF0088
:1022F0000000EB00609C89008EC0A900F800370048
:102300006095810071958100E00F5000E08F5800CA
:102310000B003A00619C810000022000808F500079
:1023200007003A00609581007195810061004000CE
:10233000E0804800609589007195890000000000E8
:10234000609C81000000E00012003A009424EF003D
:102350008C24EF002000200030258800A824EF0006
:102360008644A900F009200080248800F00920009C
:1023700060248800010037009404A800A024800095
:10238000610060000000E000FBFF32001000200050
:10239000609C8900609C8100E10F50000C003A00B5
:1023A000A124800000042000008060000000E00004
:1023B00007003A000080EB00502488008C24EF00D6
:1023C0008C04A8008C84A80020002000609C890058
:1023D00000248000700060000000E0000700320070
:1023E00010248000700060000000E0000300320054
:1023F0000001200000248800A3080700402480007A
:10240000620060000000E000020032008EC0A900FF
:10241000B300370050248000610060000000E0003D
:102420000900320060248000610060000000E000CC
:10243000050032000CFF070040002000609C89006E
:10244000100020005024880050248000700060009C
:102450000000E0000700320060248000700060008F
:102460000000E000030032007B08070000012000AC
:102470005024880050248000640060000000E000C8
:102480001800320060248000640060000000E0005A
:1024900004003200300720005EA9020000000000A6
:1024A000209E89004000200050248800803B2300AB
:1024B000104078000004E00005003200803B23005B
:1024C000104078008040E900803B230001487800FC
:1024D000803B2300104078000004E00001003A0037
:1024E000FA020700512480000008200000806000EC
:1024F0000000E00006003200612480000008200097
:10250000008060000000E0000100320020080700A9
:1025100050248000620060000000E0000C003200E7
:1025200060248000620060000000E00008003200CB
:10253000F0FF27005EA9020000000000209E890035
:102540000080EB00702488002000200050248800C8
:10255000609C8100E30F500002003E008EC0A90085
:102560005F00370060248000680060000000E00029
:102570005A003200703D23008040EB000148780093
:102580005000370050248000680060000000E00028
:10259000510032009024800080407800E03A23000F
:1025A00001487800E03A23001080FB004400DE0080
:1025B0000040780080407800F03A2300014878001D
:1025C0008000200050248800E03A2300104078006A
:1025D000684060000004E00016003A00F03A230072
:1025E000104078008081FB00F03A23001040780012
:1025F0000080FB00CF80DE00523B23000200400041
:102600009040780061C060000004A2006141600059
:102610006118B900533B230003004000E140610012
:10262000104178000204A100814071000148780047
:1026300015003700F03A2300104078008081FB003D
:10264000F03A2300104078000080FB00CF80DE00CD
:10265000223B2300020040009040780061C06000EF
:102660000004A200614160006118B900233B23000F
:1026700003004000E1406100104178000204A10025
:102680008140710001487800F03A23001040780042
:102690000004E00002003A000708070004003700C9
:1026A000200720005EA9020000000000209E890093
:1026B000703D2300104078008040E800703D23000A
:1026C00001487800703D230010407800E34F50002F
:1026D000ACFF360001003700000000008EC0A900EA
:1026E0000080FA00000006000200FA00004F7800A7
:1026F000114798001E4090000080FB0068006000B9
:102700000000E000030032008040EB001E40780033
:10271000460307001E4090000080FB00640060003C
:102720000000E0000300320011C0B3001E4078003A
:102730003E0307001E80FB00CF80DE00F200200079
:1027400003002000820F5000838F580051003E008C
:10275000006001000F00370012003700150037003D
:10276000180037001B0037001E003700210037001B
:1027700024003700270037002A0037002D003700DB
:10278000300037003300370036003700390037009B
:102790003C0037001E4090000080FB005025880060
:1027A0003D0037001E4090000080FB00602588003F
:1027B000390037001E4090000080FB007025880023
:1027C000350037001E4090000080FB008025880007
:1027D000310037001E4090000080FB0090258800EB
:1027E0002D0037001E4090000080FB00A0258800CF
:1027F000290037001E4090000080FB00B0258800B3
:10280000250037001E4090000080FB00C025880096
:10281000210037001E4090000080FB00D02588007A
:102820001D0037001E4090000080FB00E02588005E
:10283000190037001E4090000080FB00F025880042
:10284000150037001E4090000080FB000026880025
:10285000110037001E4090000080FB001026880009
:102860000D0037001E4090000080FB0020268800ED
:10287000090037001E4090000080FB0030268800D1
:10288000050037001E4090000080FB0040268800B5
:1028900001003700000000000080FA000000060080
:1028A0000600FA00204798003147980042479800F8
:1028B000534798003E4090000004E0007F00320043
:1028C0002E4090000080FB00CF80DE0032392300D4
:1028D00000004100104F78004E4090000080FB0047
:1028E000E10F500011003200E20F50001C003200D6
:1028F0000000E00027003A001E80FB006101B900E3
:102900004218DD00CE10DE00810070004210DD00B4
:1029100062004000E08048000240230002004000C6
:102920008000EB00010878001B0037001E80FB00D0
:10293000A40923006101B9004218DD00CE10DE00B9
:10294000810070004210DD0062004000E08048001D
:102950000240230002004000040878000E00370007
:102960001E80FB00A40D23006101B9004218DD00A8
:10297000CE10DE00810070004210DD0062004000D9
:10298000E080480002402300020040000408780074
:1029900001003700000000001E80FB006101B9004B
:1029A0004218DD00CE10DE00810070004210DD0014
:1029B0000240230002004000DE4090000148780001
:1029C0009E82FB001E80FB006101B9004218DD0001
:1029D000CE10DE00810070004210DD0002402300B6
:1029E000020040001040900001C4B30001426000AA
:1029F0006129B9004218DD00CE10DE0081007000B0
:102A00004210DD0002402300020040001440980004
:102A10009E82FB001E80FB006101B9004218DD00B0
:102A2000CE10DE00810070004210DD000240230065
:102A3000020040009040900080C8B30000C27000C7
:102A40006129B9004218DD00CE10DE00810070005F
:102A50004210DD00024023000200400014409800B4
:102A60002E4090008081FB002E4090000080FB00F3
:102A7000CF80DE0032392300000041001040780092
:102A8000004178000204A2006118B9003339230024
:102A900000804100024878002E4090000080FB003A
:102AA000CF80DE00323923000000410090407800E2
:102AB00020172300014878007E0037002E40900048
:102AC0000080FB00CF80DE0062392300000041005F
:102AD000104F78004E4090000080FB00E10F500046
:102AE00011003200E20F50001C0032000000E00034
:102AF00027003A001E80FB006101B9004218DD008A
:102B0000CE10DE00810070004210DD006200400047
:102B1000E080480002402300020040008000EB00FB
:102B2000010878001B0037001E80FB00A409230069
:102B30006101B9004218DD00CE10DE008100700096
:102B40004210DD0062004000E080480002402300A7
:102B500002004000040878000E0037001E80FB00D1
:102B6000A40D23006101B9004218DD00CE10DE0083
:102B7000810070004210DD0062004000E0804800EB
:102B800002402300020040000408780001003700E2
:102B9000000000001E80FB006101B9004218DD004A
:102BA000CE10DE00810070004210DD0002402300E4
:102BB00002004000DE409000014878009E82FB0049
:102BC0001E80FB006101B9004218DD00CE10DE005E
:102BD000810070004210DD0002402300020040002E
:102BE0001040900001C4B300014260006129B900A7
:102BF0004218DD00CE10DE00810070004210DD00C2
:102C00000240230002004000144098009E82FB0016
:102C10001E80FB006101B9004218DD00CE10DE000D
:102C2000810070004210DD000240230002004000DD
:102C30009040900080C8B30000C270006129B900C4
:102C40004218DD00CE10DE00810070004210DD0071
:102C50000240230002004000144098002E409000E3
:102C60008081FB002E4090000080FB00CF80DE00C2
:102C700062392300000041001040780000417800D4
:102C80000204A2006118B9006339230000804100EA
:102C9000024878002E4090000080FB00CF80DE00CC
:102CA0006239230000004100904078001017230093
:102CB000014878000080FA00000006000400FA00D5
:102CC00020479800314798002E4090000004E00013
:102CD00033003A0020392300104078000080FB00C8
:102CE0006101B9004218DD00CE10DE0081007000E5
:102CF0004210DD00024023000200400081C0B3000A
:102D00000148780020392300104078000080FB0043
:102D1000643C23006101B9004218DD00CE10DE00E2
:102D2000810070004210DD0062004000E080480039
:102D300002402300020040000408780020392300EC
:102D4000104078000080FB006101B9004218DD00EE
:102D5000CE10DE00810070004210DD000240230032
:102D600002004000C1C8B300114098003039230070
:102D7000104F78001E80FB006101B9004218DD0091
:102D8000CE10DE00810070004210DD000240230002
:102D90000200400041C8B3001140980047003700CE
:102DA0002E4090000080FB00000040008000780072
:102DB0003E4090000080FB0000804000000040008A
:102DC000800278002E4090000080FB000000400050
:102DD000800078003E4090000080FB0000804000B2
:102DE000000040006101B9004218DD00CE10DE0095
:102DF000810070004210DD0002402300020040000C
:102E00009040900040C8B30000C270006129B90032
:102E10004218DD00CE10DE00810070004210DD009F
:102E20000240230002004000144098002E40900011
:102E30000080FB0000004000800078003E409000D1
:102E40000080FB0000804000000040008002E8009D
:102E50002E4090000080FB000000400080007800C1
:102E60003E4090000080FB000080400000004000D9
:102E70000000E8006101B9004218DD00CE10DE005C
:102E8000810070004210DD0002402300020040007B
:102E90009040900040C8B30000C270006129B900A2
:102EA0004218DD00CE10DE00810070004210DD000F
:102EB0000240230002004000144098000080FA0005
:102EC000000006000400FA0020479800A1248000BA
:102ED00000022000008060000000E0007900320065
:102EE0002E4090000080FB00CF80DE0032392300AE
:102EF00000004100104F78001E82FB001E80FB0086
:102F00006101B9004218DD00CE10DE0081007000C2
:102F10004210DD0002402300020040001001BE000C
:102F200000042000010020008202780003017800E4
:102F30008001780001007800838262000000610057
:102F40008000EB00C000DD00000020000001BE009A
:102F50006128B8000001710081817100CFA2DE00FC
:102F60004228DD00CE20DE00810070004220DD001E
:102F700004402300040040000288BE001E82FB00C3
:102F80001E80FB006101B9004218DD00CE10DE009A
:102F9000810070004210DD0002402300020040006A
:102FA0001001BE00000420000100200000006900A4
:102FB00081806900CFA2DE004229DD00CE21DE0043
:102FC000830171004221DD0004402300040141001F
:102FD0000089BE002E4090008081FB002E409000B2
:102FE0000080FB00CF80DE0032392300000041006A
:102FF00010407800004178000204A2006118B90076
:103000003339230000804100024878002E409000B0
:103010000080FB00CF80DE00323923000000410039
:10302000104F78009E82FB001E80FB006101B900FA
:103030004218DD00CE10DE00810070004210DD007D
:1030400002402300020040001040900001C4B30081
:10305000014260006129B9004218DD00CE10DE0097
:10306000810070004210DD00024023000200400099
:10307000144098009E82FB001E80FB006101B90095
:103080004218DD00CE10DE00810070004210DD002D
:1030900002402300020040009040900000C4B300B2
:1030A00000C268006129B9004218DD00CE10DE00C0
:1030B000810070004210DD00024023000200400049
:1030C000144098000080FA00000006000200FA0098
:1030D000E09D81000000E00076003A001000200032
:1030E000E09D8900F09D81000000E00071003A0041
:1030F00010002000F09D8900A039230010407800C6
:10310000E24F500017003A0030392300104F78008A
:103110001E80FB006101B9004218DD00CE10DE0008
:10312000810070004210DD000240230002004000D8
:103130008040EB00014878001E80FB006101B9006F
:103140004218DD00CE10DE00810070004210DD006C
:10315000024023000200400081CCB30011409800DF
:1031600054003700A039230010407800E14F500090
:1031700050003A000000EB00809D890010392300C8
:10318000104078000080FB006101B9004218DD00AA
:10319000CE10DE00810070004210DD0002402300EE
:1031A0000200400081C0B3000148780010392300BC
:1031B000104078000080FB00643C23006101B900EE
:1031C0004218DD00CE10DE00810070004210DD00EC
:1031D00062004000E08048000240230002004000FE
:1031E0000408780010392300104078000080FB00AC
:1031F0006101B9004218DD00CE10DE0081007000D0
:103200004210DD00024023000200400041C8B3002C
:103210001140980010002000809D89002039230073
:10322000104078000080FB006101B9004218DD0009
:10323000CE10DE00810070004210DD00024023004D
:103240000200400081C0B30001487800203923000B
:10325000104078000080FB00643C23006101B9004D
:103260004218DD00CE10DE00810070004210DD004B
:1032700062004000E080480002402300020040005D
:103280000408780020392300104078000080FB00FB
:103290006101B9004218DD00CE10DE00810070002F
:1032A0004210DD00024023000200400001C8B300CC
:1032B000114098000080FA00000006000200FA00A9
:1032C0000000EB00009E89000000EB00109E8900CA
:1032D000A039230010407800E24F500027003A0048
:1032E00020392300104078000080FB006101B90004
:1032F0004218DD00CE10DE00810070004210DD00BB
:10330000024023000200400081C0B3000148780061
:1033100020392300104078000080FB00E43C2300AB
:103320006101B9004218DD00CE10DE00810070009E
:103330004210DD0062004000E080480002402300AF
:103340000200400004087800203923001040780073
:103350000080FB006101B9004218DD00CE10DE00E4
:10336000810070004210DD00024023000200400096
:1033700081CCB300114098002A003700C03C2300E4
:103380001080FB00D13C23009180FB00C808DD00C9
:103390000100700080007800209D8100808F500027
:1033A00007003100C03C23001080FB00D13C23000B
:1033B0009180FB00C808DD0001007000209D89009D
:1033C0000501070030392300104F78001E80FB00F4
:1033D000E43C23006101B9004218DD00CE10DE009C
:1033E000810070004210DD0062004000E080480073
:1033F0000240230002004000040878001E80FB0009
:103400006101B9004218DD00CE10DE0081007000BD
:103410004210DD00024023000200400081CCB300D6
:10342000114098000080FA00000006000200FA0037
:10343000004F7800114798001E80FB0000004000FC
:10344000800078001E4090000080FB00008040005B
:10345000000040006101B8004218DD00CE10DE001F
:10346000810070004210DD00024023000200400095
:1034700010017800F1FF2700810061000108780049
:103480001E4090000004E0000D003A009E80FB000A
:103490001E40780000404000004178001E4090002F
:1034A0000040410000404000004178006108B90040
:1034B0006339230000804100024878000C00370087
:1034C0009E80FB001E4078000040400000417800D4
:1034D0001E40900000404100004040000041780044
:1034E0006108B900333923000080410002487800A8
:1034F0001E80FB0000004000800078001E4090000D
:103500000080FB0000804000000040006101B80026
:103510004218DD00CE10DE00810070004210DD0098
:1035200002402300020040009000780001E0A1006A
:10353000010878001E80FB00000040008000780039
:103540001E4090000080FB00008040000000400012
:103550000000E8006101B8004218DD00CE10DE0076
:10356000810070004210DD00024023000200400094
:103570009000780001E0A000010878000080FA00C7
:10358000000006000200FA0094A4A900119D810029
:1035900000082000008060000000E00045003A00C4
:1035A000603A23009040780000C8B30000C060007B
:1035B0000004E0000C003200A039230021C0B30059
:1035C00001487800109E81000000E00001003A00F0
:1035D0003AFF07000000EB00F09D89000000EB00BF
:1035E000E09D89007A0037002039230010407800E0
:1035F0000080FB006101B9004218DD00CE10DE0042
:10360000810070004210DD000240230002004000F3
:1036100081C0B300014878002039230010407800B1
:103620000080FB00643C23006101B9004218DD000A
:10363000CE10DE00810070004210DD00620040000C
:10364000E0804800024023000200400004087800A7
:1036500020392300104078000080FB006101B90090
:103660004218DD00CE10DE00810070004210DD0047
:103670000240230002004000C1C8B300114098007E
:1036800030392300104F78001E80FB006101B90023
:103690004218DD00CE10DE00810070004210DD0017
:1036A000024023000200400041C8B30011409800CE
:1036B00047003700603C23009040780000C8B3000A
:1036C00000C060000004E00010003200A0392300B8
:1036D00011C0B30001487800009E81000000E000A6
:1036E00001003A00F5FE07000000EB00F09D8900A4
:1036F0000000EB00E09D8900D09D81000000E0000B
:1037000033003A0071FE070031003700A039230072
:1037100021C0B30001487800203923001040780010
:103720000080FB006101B9004218DD00CE10DE0010
:10373000810070004210DD000240230002004000C2
:1037400081C0B30001487800203923001040780080
:103750000080FB00643C23006101B9004218DD00D9
:10376000CE10DE00810070004210DD0062004000DB
:10377000E080480002402300020040000408780076
:1037800020392300104078000080FB006101B9005F
:103790004218DD00CE10DE00810070004210DD0016
:1037A000024023000200400041C8B30011409800CD
:1037B0000000EB00F09D89000000EB00E09D890017
:1037C000D09D81000000E00001003A003FFE0700AC
:1037D0000080FA00000006000200FA00803D23008D
:1037E00081C0B30001487800209D8100E70F5000A0
:1037F00013003E00209D810080407800803D230022
:103800000148780090392300104078000004E0005F
:1038100004003A009039230011C0B3000148780039
:10382000070037009039230010407800E14F500026
:1038300003003A009039230021C0B300014878000A
:10384000219D8100803D2300104078000080FB0016
:1038500000805000209D890030392300104F7800EF
:103860001E80FB00813D2300114278006101B900F8
:103870004218DD00CE10DE00810070004210DD0035
:10388000024023000200400004487800903D2300DD
:103890008040EB0001487800109D810061006000CD
:1038A0000000E000F4003A0079003700E09C81005D
:1038B000E20F50002E003200E20F500005003E00E3
:1038C0000000E00008003200E10F50001500320057
:1038D00060003700E30F500038003200E40F500062
:1038E000490032005B003700903D23001040780013
:1038F0008081FB00A03D2300104078000080FB0089
:10390000CF80DE00E2E12800000041001041780095
:103910006118B900E33C23000080410002487800B0
:103920004C003700903D2300104078008081FB0060
:10393000003A2300104078008080FB00A03D230067
:10394000104078000080FB0000804000CF80DE0047
:1039500002E3280000004100104178006118B9001E
:10396000E33C230000804100024878003900370022
:10397000903D2300104078008081FB00003A230036
:10398000104078008080FB00A03D230010407800AC
:103990000080FB0000804000CF80DE0032E728007E
:1039A00000004100104178006118B900E33C230099
:1039B000008041000248780026003700903D230037
:1039C000104078008081FB00003A2300104078000E
:1039D0008080FB00A03D2300104078000080FB00A9
:1039E00000804000CF80DE0072E728000000410028
:1039F000104178006118B900E33C230000804100C9
:103A00000248780013003700903D230010407800F2
:103A10008081FB00003A2300104078008080FB008A
:103A2000A03D2300104078000080FB000080400093
:103A3000CF80DE00B2EA280000004100104178008B
:103A40006118B900E33C230000804100024878007F
:103A500000000000A03D2300104078008040E800F6
:103A6000A03D230001487800903D230010407800DD
:103A70008040E800903D230001487800803D23000D
:103A8000104078008040E900803D23000148780024
:103A9000803D2300104078000004E00083FF3A00DE
:103AA0007A003700F09C8100E20F500029003200BC
:103AB000E20F500005003E000000E0000800320068
:103AC000E10F5000190032005B003700E30F500097
:103AD00033003200E40F500044003200560037003B
:103AE000903D2300104078008081FB00103A2300B5
:103AF000104078008080FB00A03D2300104078003B
:103B00000080FB0000804000CF80DE00E23C23000C
:103B100000004100104178006118B900E33C230027
:103B2000008041000248780043003700903D2300A8
:103B3000104078000080FB00E1382300114178003C
:103B4000CF80DE00E33C2300008041000248780083
:103B500039003700903D2300104078008081FB0041
:103B6000103A2300104078008080FB00A03D230025
:103B7000104078000080FB0000804000CF80DE0015
:103B8000F238230000004100104178006118B900AC
:103B9000E33C230000804100024878002600370003
:103BA000903D2300104078008081FB00103A2300F4
:103BB000104078008080FB00A03D2300104078007A
:103BC0000080FB0000804000CF80DE003217230021
:103BD00000004100104178006118B900E33C230067
:103BE000008041000248780013003700903D230018
:103BF000104078008081FB00103A230010407800CC
:103C00008080FB00A03D2300104078000080FB0076
:103C100000804000CF80DE00A2112300020040009F
:103C2000104178006118B900E33C23000080410096
:103C30000248780000000000A03D230010407800FA
:103C40008040E800A03D230001487800903D23001B
:103C5000104078008040E800903D23000148780043
:103C6000803D2300104078008040E900803D230023
:103C7000014878000100370000000000803D23006B
:103C8000104078000004E00086FF3A000080FA004F
:103C9000000006000000FA001039230010407800F0
:103CA0000080FB006101B9004218DD00CE10DE008B
:103CB000810070004210DD0002402300020040003D
:103CC00090407800B03D230001487800B03D2300CB
:103CD000104078008080FB00703A23001080FB00C9
:103CE000823A23001281FB004811DD0002007000BF
:103CF000808F500009003600703A23001080FB00CE
:103D0000813A23009180FB00C808DD0001007000AB
:103D100080407800B03D230001487800703A2300CD
:103D20001080FB00813A23009180FB00C808DD0071
:103D30000100700080007800B03D23001040780042
:103D40000080FB0000805000F10F200001016000A6
:103D5000713A230091417800E0C1610002C1710015
:103D600082487800C800DE00803A230010417800C5
:103D7000604161008140710001487800C03D23002E
:103D80008040EB000148780013003700D03D23004D
:103D9000104078008081FB00C03D23001040780077
:103DA0000080FB00CF80DE00E23C230000004100E9
:103DB000104178006118B900A311230003004000EE
:103DC00002487800C03D2300104078008040E800A1
:103DD000C03D230001487800C03D2300904078009A
:103DE000B03D23001040780080CF5000E7FF39003D
:103DF000703A23001080FB00813A23009180FB0081
:103E0000C808DD00010070000000E000430032003F
:103E100020392300104078000080FB006101B900C8
:103E20004218DD00CE10DE00810070004210DD007F
:103E3000024023000200400081C0B3000148780026
:103E400020392300104078000080FB00E43C230070
:103E50006101B9004218DD00CE10DE008100700063
:103E60004210DD0062004000E08048000240230074
:103E70000200400004087800103923001040780048
:103E80000080FB006101B9004218DD00CE10DE00A9
:103E9000810070004210DD0002402300020040005B
:103EA000100078004E00DE00614060000004E00079
:103EB0000D003A0020392300104078000080FB00FC
:103EC0006101B9004218DD00CE10DE0081007000F3
:103ED0004210DD00024023000200400081CCB3000C
:103EE000114098003B003700203923001040780033
:103EF0000080FB006101B9004218DD00CE10DE0039
:103F0000810070004210DD000240230002004000EA
:103F100081C8B300114098002E00370020392300DB
:103F2000104078000080FB006101B9004218DD00FC
:103F3000CE10DE00810070004210DD000240230040
:103F40000200400081C0B3000148780020392300FE
:103F5000104078000080FB00643C23006101B90040
:103F60004218DD00CE10DE00810070004210DD003E
:103F700062004000E0804800024023000200400050
:103F80000408780020392300104078000080FB00EE
:103F90006101B9004218DD00CE10DE008100700022
:103FA0004210DD00024023000200400041C8B3007F
:103FB00011409800603A2300904078000174A100FD
:103FC00001487800D09D81000000E00001003A0027
:103FD0003EFC07000080FA00000006000000FA0026
:103FE000109D81000070A000109D890042002000FB
:103FF000030020008000EB00C04A20002A0B0200D2
:104000000000000002032000030020008000EB00FD
:10401000004023002A0B0200000000009424A800A6
:10402000E03D23008040EB00014878001500370098
:10403000E03D2300104078000080FB00CF80DE00D0
:10404000223B2300000041008040EB000148780043
:10405000E03D2300104078000080FB00CF80DE00B0
:10406000523B2300000041008040EB0001487800F3
:10407000E03D2300104078008040E800E03D230050
:1040800001487800E03D230010407800E24F5000E6
:10409000E7FF360022002000030020008000EB0034
:1040A000F03823002A0B0200000000009424A9002D
:1040B0003039230021C0B3000148780010392300B3
:1040C0008040EB0001487800203923008040EB005D
:1040D00001487800803C230090407800E0382300BD
:1040E00001487800E0382300104078000004E00028
:1040F00003003A0000012000609C890006003700A0
:10410000100020005EA9020000000000209E89002F
:1041100000022000609C89000080FA000000060078
:104120000000FA00603C23009040780000C8B30013
:1041300080CF500077003A00203A230001CCB30032
:1041400001487800903C2300104078000080FB007C
:10415000E20F50000F003200E30F50002B0032003E
:10416000E10F500067003A000000EB00E09C89007E
:10417000003A23008040EB0001487800A03D230076
:104180008040EB000148780020012000209D89003C
:1041900060003700A03D23008040EB00014878001C
:1041A00010002000E09C8900803C230090407800B3
:1041B000003A230001487800803C2300104078003A
:1041C0000080FB000080E800CF80DE0002E32800D2
:1041D0000000410090407800403A230001487800F8
:1041E000803C2300104078000080FB00630040000A
:1041F000CF80DE0002E328000000410090407800FC
:10420000503A23000148780042003700803C2300E8
:1042100010407800E24F500036003E00803C230002
:10422000104078000080FB00E10F500010003200C9
:10423000E20F50001A0032000000E00024003A00B3
:1042400020002000E09C8900803C23001040780082
:104250000080FB00CF80DE0032E728000000410034
:10426000104078000080FB00209D89001900370075
:1042700030002000E09C8900803C23001040780042
:104280000080FB00CF80DE0072E7280000004100C4
:10429000104078000080FB00209D89000D00370051
:1042A00040002000E09C8900803C23001040780002
:1042B0000080FB00CF80DE00B2EA28000000410051
:1042C000104078000080FB00209D8900010037002D
:1042D00000000000A03D23008040EB000148780072
:1042E000803C230090407800003A23000148780089
:1042F00008003700203A23008040EB000148780096
:1043000004003700203A23008040EB000148780089
:10431000000000000080FA00000006000200FA0021
:10432000E03C23008040EB0001487800F03C230093
:104330008040EB0001487800603C2300904078000A
:104340007FC060000080FB00E10F500017003200CA
:10435000E20F5000190032000000E0006C003A004B
:10436000109D81000070A000109D8900E03C23009A
:1043700010407800804078000104A000E03C230059
:1043800001487800509D8100E10F500062003A0022
:10439000E03C230010407800804078000114A00029
:1043A000E03C23000148780064003700109D810044
:1043B0000070A000109D890060003700109D8100F2
:1043C0000070A000109D8900A03C23009040780060
:1043D00000C8B30000C060000004E00026003A00FE
:1043E000A03C2300904078006FC060000080FB007C
:1043F000CF80DE006239230000004100104F7800BA
:104400001E80FB006101B9004218DD00CE10DE0005
:10441000810070004210DD000240230002004000D5
:10442000100078004F00DE0000407800E14F50009F
:104430003B003A001E80FB006101B9004218DD001C
:10444000CE10DE00810070004210DD00024023002B
:1044500002004000100078004A00DE006140600069
:10446000E14F500030003A00E03C230011C0B3009F
:104470000148780031003700A03C230090407800CC
:104480006FC060000080FB00CF80DE003239230067
:1044900000004100104F78001E80FB006101B90050
:1044A0004218DD00CE10DE00810070004210DD00F9
:1044B0000240230002004000100078004F00DE00A0
:1044C00000407800E14F500019003A001E80FB00C8
:1044D0006101B9004218DD00CE10DE0081007000DD
:1044E0004210DD000240230002004000100078006E
:1044F0004A00DE0061406000E14F50000E003A00CB
:10450000E03C230011C0B300014878000B003700E5
:10451000000000000900370000000000070037001D
:104520000000000005003700000000000300370015
:10453000000000000100370000000000119D810014
:1045400000082000008060000000E0000E00320043
:10455000A03D23008040EB00014878000000EB0004
:10456000F09C8900103A23008040EB00014878005D
:10457000109D81000000A000109D8900403A23009A
:1045800021C0B300014878000080FA000000060056
:104590000200FA0050258000620060000000E00088
:1045A0002900320030392300104F780010392300E1
:1045B000104078000080FB006101B9004218DD0066
:1045C000CE10DE00810070004210DD0002402300AA
:1045D000020040009040900000C8B30080CF50001F
:1045E00018003A001E80FB006101B9004218DD008E
:1045F000CE10DE00810070004210DD00024023007A
:10460000020040009040900040C8B30080CF5000AE
:104610000C003A0010392300104078000080FB00A5
:104620006101B9004218DD00CE10DE00810070008B
:104630004210DD000240230002004000C1C8B30068
:1046400011409800AA24A9000008200050248800E6
:104650000080FA00000006000000FA008284A80032
:10466000000120005024880010002000609D890077
:10467000500720005EA9020000000000209E890073
:104680000080FA00000006000000FA000000EB00C5
:10469000609D8900400720005EA902000000000024
:1046A000209E89008284A900000120000024880047
:1046B0000080FA00000006000000FA00803B2300A2
:1046C000D1C2B30001487800E03A230010407800DE
:1046D0000080FB000020A1000000E0006F003A0015
:1046E000E03A2300104078000080FB004200DE002A
:1046F000804078001039230001487800E03A230018
:10470000104078000080FB004200DE00804078000E
:104710002039230001487800203923001040780018
:10472000804078000104A20020392300014878006D
:1047300010392300104078000080FB006101B900AF
:104740004218DD00CE10DE00810070004210DD0056
:104750000240230002004000100078004A00DE0002
:104760006F406000ED4F50004A003A00F03D2300DA
:104770008040EB000148780032003700F03D230014
:10478000104078000080FB008000EB00623C2300BA
:104790000202400010392300104078000080FB0026
:1047A0006101B9004218DD00CE10DE00810070000A
:1047B0004210DD0062004000E0804800024023001B
:1047C000020040001000780010407800004A780095
:1047D00010392300104078000082FB006121B900ED
:1047E0004218DD00CE10DE00810070004210DD00B6
:1047F00062004000E08048000240230002004000C8
:10480000100078008002E8006121B9004218DD0044
:10481000CE10DE00810070004210DD00620040001A
:10482000E0804800024023000200400005087800B4
:10483000F03D2300104078008040E800F03D230068
:1048400001487800F03D230010407800E74F500009
:10485000CAFF360010392300104078000080FB00AA
:10486000643C23006101B9004218DD00CE10DE0077
:10487000810070004210DD0062004000E0804800CE
:104880000240230002004000040878000C000700EA
:10489000090037007F00070007003700E03A2300D7
:1048A000104078000080FB000020A100E80F5000BD
:1048B00001003A00AF0007000080FA000000060087
:1048C0000200FA00903923008040EB000148780094
:1048D0000000EB00D09D89000000EB00009E8900E5
:1048E0000000EB00109E89000000EB00809D890015
:1048F000A03923008040EB000148780030392300C4
:10490000104F78009E82FB001E80FB006101B90001
:104910004218DD00CE10DE00810070004210DD0084
:104920000240230002004000104090000042780046
:104930000474A1006129B9004218DD00CE10DE0028
:10494000810070004210DD000240230002004000A0
:1049500014409800303923001040780080407800DF
:104960000104A200303923000148780030392300C7
:10497000104F78009E82FB001E80FB006101B90091
:104980004218DD00CE10DE00810070004210DD0014
:1049900002402300020040001040900000427800D6
:1049A0000474A1006129B9004218DD00CE10DE00B8
:1049B000810070004210DD00024023000200400030
:1049C000144098003039230010407800804078006F
:1049D0000104A20030392300014878002039230067
:1049E000104078008082FB000080FB006101B9006C
:1049F0004218DD00CE10DE00810070004210DD00A4
:104A00000240230002004000104090000042780065
:104A10000474A1006129B9004218DD00CE10DE0047
:104A2000810070004210DD000240230002004000BF
:104A300014409800203A23008040EB0001487800A1
:104A40000000EB00209D8900603A23008040EB00CD
:104A500001487800703A230090407800E0C0600080
:104A600001487800803A230090407800E0C0600060
:104A700001487800B4000700300020005EA9020061
:104A800000000000209E8900BEFA07000080FA00A6
:104A9000000006000000FA00A03923001040780052
:104AA000E24F500002003A007AFC07002F00370066
:104AB000A03923008040EB0001487800809D8100F0
:104AC0000000E00027003A00203923001040780061
:104AD0000080FB006101B9004218DD00CE10DE004D
:104AE000810070004210DD000240230002004000FF
:104AF00081C0B300014878002039230010407800BD
:104B00000080FB00643C23006101B9004218DD0015
:104B1000CE10DE00810070004210DD006200400017
:104B2000E0804800024023000200400004087800B2
:104B300020392300104078000080FB006101B9009B
:104B40004218DD00CE10DE00810070004210DD0052
:104B50000240230002004000C1C8B3001140980089
:104B6000020037000000EB00809D89000080FA0001
:104B7000000006000200FA0030392300104F7800D0
:104B80001E80FB006101B9004218DD00CE10DE007E
:104B9000810070004210DD0002402300020040004E
:104BA000100078004E00DE00614060008040780018
:104BB000003E23000148780030392300104078007F
:104BC000804078000104A2003039230001487800B9
:104BD00030392300104F7800609C8100E80F5000AE
:104BE0000C003A00803C2300104078000080FB005D
:104BF000B0248800B02480000000E00003003200F0
:104C000000012000609C8900020037004000200065
:104C1000609C8900A039230010407800E14F5000CB
:104C20003A003A0030392300104F78001E80FB0014
:104C3000E43C23006101B9004218DD00CE10DE0023
:104C4000810070004210DD0062004000E0804800FA
:104C5000024023000200400004087800DEFA07004A
:104C60009039230010407800E24F50000B003A00CA
:104C70001E80FB006101B9004218DD00CE10DE008D
:104C8000810070004210DD0002402300020040005D
:104C900041C8B30011409800290037003039230083
:104CA000104F7800003E2300104078000004E00020
:104CB0000B003A001E80FB006101B9004218DD00C4
:104CC000CE10DE00810070004210DD0002402300A3
:104CD0000200400081CCB30011409800180037005A
:104CE0001E80FB006101B9004218DD00CE10DE001D
:104CF000810070004210DD000240230002004000ED
:104D000081C8B300114098000D003700603A2300BD
:104D10009040780000C8B30000C060000004E000CC
:104D200004003200603A2300904078000174A10032
:104D300001487800A03923008040EB00014878004A
:104D40000080FA00000006000000FA00603C23002A
:104D5000104078000046B2000004E0005B003A001A
:104D6000703C2300104078000080FB00CF80DE0004
:104D7000B200200003002000820F5000838F5800F3
:104D800054003E0000600100270037002800370073
:104D90005200370026003700500037000600370069
:104DA0000B003700440037000D0037000A003700C1
:104DB0002100370033003700109D81000070A000F3
:104DC000109D890080002000609C8900440037000D
:104DD000D3FC07004200370080FC0700400037008A
:104DE000A03D23008040EB00014878001000200027
:104DF000F09C8900103A23008040EB0001487800C5
:104E0000109D81000000A000109D8900403A230001
:104E100011C0B30001487800109D81000070A0000F
:104E2000109D89002E0037003CFD07002C00370044
:104E30002D0007002A003700A03D23008040EB0032
:104E40000148780020002000F09C8900A03C23004D
:104E500090407800103A230001487800109D8100AE
:104E60000000A000109D8900403A230011C0B3004B
:104E700001487800109D81000070A000109D8900FD
:104E800017003700109D81000070A000109D890060
:104E9000A03C2300104078000080FB00813C2300F0
:104EA00011417800CF80DE00F338230000804100FC
:104EB000024878000A003700200020005EA90200A6
:104EC00000000000209E890005003700000000005F
:104ED0000300370000000000010037000000000060
:104EE0000080FA00000006000200FA00803C230067
:104EF00010407800E14F500011003A00603C230060
:104F0000104078007F4060000004E0000C003A0090
:104F1000109D81000070A000109D8900703C23004E
:104F200010407800E34F500003003A0010002000CA
:104F3000509D8900020037000000EB00509D890061
:104F4000803C2300104078000004E00005043A0093
:104F5000603C2300104078007F406000E24F50002A
:104F600000043A00A03C2300104078006F4060002D
:104F70000004E000FB033200A03C230090407800D6
:104F80006FC060000080FB00E20F5000F5033C00A2
:104F9000619C810000022000808F5000F1033A00E4
:104FA000109D81000070A000109D8900A03C23008E
:104FB0009040780000C8B30000C060000004E0002A
:104FC0000B003A00A03C2300904078006FC06000C6
:104FD0000080FB00CF80DE00523B23000000410038
:104FE00090407800103E2300014878000A00370006
:104FF000A03C2300904078006FC060000080FB0060
:10500000CF80DE00223B230000004100904078006A
:10501000103E230001487800103E23001040780025
:10502000614060000004E00046003A00A03C23001C
:105030009040780000C8B30000C060000004E000A9
:1050400020003A00A03C2300904078006FC0600030
:105050000080FB00CF80DE006239230000004100A9
:10506000104F7800A03C2300904078006FC0600093
:105070008081FB000080FB00CF80DE0062392300CE
:105080000000410010407800004178000204A100B7
:105090006118B9006339230000804100024878009C
:1050A000A03C2300904078006FC060000080FB00AF
:1050B000CF80DE006239230000004100104F7800ED
:1050C00069003700A03C2300904078006FC060006A
:1050D0000080FB00CF80DE00323923000000410059
:1050E000104F7800A03C2300904078006FC0600013
:1050F0008081FB000080FB00CF80DE00323923007E
:105100000000410010407800004178000204A10036
:105110006118B9003339230000804100024878004B
:10512000A03C2300904078006FC060000080FB002E
:10513000CF80DE003239230000004100104F78009C
:1051400049003700A03C23009040780000C8B3001D
:1051500000C060000004E00022003A00A03C2300F0
:10516000904078006FC060000080FB00CF80DE00C0
:105170006239230000004100104F7800A03C23005A
:10518000904078006FC060008081FB000080FB00D1
:10519000CF80DE006239230000004100104078001B
:1051A00080407800E0CFB30000C07000004178007C
:1051B0006118B9006339230000804100024878007B
:1051C000A03C2300904078006FC060000080FB008E
:1051D000CF80DE006239230000004100104F7800CC
:1051E00021003700A03C2300904078006FC0600091
:1051F0000080FB00CF80DE00323923000000410038
:10520000104F7800A03C2300904078006FC06000F1
:105210008081FB000080FB00CF80DE00323923005C
:10522000000041001040780080407800E0CFB300DB
:1052300000C07000004178006118B90033392300C4
:105240000080410002487800A03C23009040780094
:105250006FC060000080FB00CF80DE003239230089
:1052600000004100104F7800A03C230090407800DF
:1052700000C8B30000C060000004E00011003A0064
:10528000A03C2300904078006FC060008081FB004C
:10529000A03C2300904078006FC060000080FB00BD
:1052A000CF80DE0032392300000041001041780039
:1052B0006118B9006339230000804100024878007A
:1052C00010003700A03C2300904078006FC06000C1
:1052D0008081FB00A03C2300904078006FC06000FC
:1052E0000080FB00CF80DE00623923000000410017
:1052F000104178006118B900333923000080410063
:1053000002487800703C230010407800E34F5000C2
:1053100090003A00A03C23009040780000C8B30001
:1053200000C060000004E00045003A00A03C2300FB
:10533000904078006FC060000080FB00CF80DE00EE
:105340006239230000004100104F78001E80FB00EE
:105350006101B9004218DD00CE10DE00810070004E
:105360004210DD00024023000200400010007800DF
:105370004F00DE0000407800E14F50001B003A0073
:10538000A03C23009040780000C8B30000C060003B
:105390000004E0000B003A00A03C2300904078009D
:1053A0006FC060000080FB00CF80DE00523B230016
:1053B00002004000904078000114A00001487800ED
:1053C0000A003700A03C2300904078006FC06000C6
:1053D0000080FB00CF80DE00223B23000200400063
:1053E000904078000114A000014878009E82FB00E4
:1053F0001E80FB006101B9004218DD00CE10DE0006
:10540000810070004210DD000240230002004000D5
:105410009040900040C8B30000C270006129B900FC
:105420004218DD00CE10DE00810070004210DD0069
:10543000024023000200400014409800C9023700D7
:10544000A03C2300904078006FC060000080FB000B
:10545000CF80DE003239230000004100104F780079
:105460001E80FB006101B9004218DD00CE10DE0095
:10547000810070004210DD00024023000200400065
:10548000100078004F00DE0000407800E14F50002F
:105490001B003A00A03C23009040780000C8B300F5
:1054A00000C060000004E0000B003A00A03C2300B4
:1054B000904078006FC060000080FB00CF80DE006D
:1054C000523B230002004000904078000114A000ED
:1054D000014878000A003700A03C23009040780083
:1054E0006FC060000080FB00CF80DE00223B230005
:1054F00002004000904078000114A00001487800AC
:105500009E82FB001E80FB006101B9004218DD0095
:10551000CE10DE00810070004210DD00024023004A
:10552000020040009040900040C8B30000C27000EC
:105530006129B9004218DD00CE10DE008100700044
:105540004210DD0002402300020040001440980099
:1055500084023700A03C23009040780000C8B300CC
:1055600000C060000004E0003A013A00A03C2300C3
:10557000904078006FC060000080FB00CF80DE00AC
:105580006239230000004100104F7800A03C230046
:10559000904078006FC060008081FB000080FB00BD
:1055A000CF80DE0062392300000041001040780007
:1055B000004178000204A2006118B9006339230099
:1055C0000080410002487800A03C23009040780011
:1055D0006FC060000080FB00CF80DE0062392300D6
:1055E00000004100104F78001E80FB006101B900EF
:1055F0004218DD00CE10DE00810070004210DD0098
:105600000240230002004000100078004F00DE003E
:1056100000407800E14F50002D003A009E82FB00D0
:105620001E80FB006101B9004218DD00CE10DE00D3
:10563000810070004210DD000240230002004000A3
:1056400010409000004278000474A1006129B90064
:105650004218DD00CE10DE00810070004210DD0037
:105660000240230002004000144098009E82FB008C
:105670001E80FB006101B9004218DD00CE10DE0083
:10568000810070004210DD00024023000200400053
:1056900010409000004278000464A0006129B90025
:1056A0004218DD00CE10DE00810070004210DD00E7
:1056B00002402300020040001440980050002000E7
:1056C0005EA9020000000000209E8900140037003F
:1056D0009E82FB001E80FB006101B9004218DD00C4
:1056E000CE10DE00810070004210DD000240230079
:1056F0000200400010409000004278000464A000C6
:105700006129B9004218DD00CE10DE008100700072
:105710004210DD00024023000200400014409800C7
:10572000A03C2300904078006FC060008081FB00A7
:105730000080FB00CF80DE006239230000004100C2
:1057400010407800004178000204A2006118B900FE
:10575000633923000080410002487800A03C230008
:10576000904078006FC060000080FB00CF80DE00BA
:105770006239230000004100104F7800103E2300E2
:1057800010407800624060000004E0000D003A0024
:105790001E80FB006101B9004218DD00CE10DE0062
:1057A000810070004210DD00024023000200400032
:1057B000100078004F00DE0000407800E14F5000FC
:1057C00034003A00A03C23009040780000C8B300A9
:1057D00000C060000004E0000B003A00A03C230081
:1057E000904078006FC060000080FB00CF80DE003A
:1057F000523B230002004000904078000114A100B9
:10580000014878000A003700A03C2300904078004F
:105810006FC060000080FB00CF80DE00223B2300D1
:1058200002004000904078000114A1000148780077
:105830009E82FB001E80FB006101B9004218DD0062
:10584000CE10DE00810070004210DD000240230017
:105850000200400010409000B1C3B300014260005C
:105860006129B9004218DD00CE10DE008100700011
:105870004210DD0002402300020040001440980066
:10588000500020005EA9020000000000209E890058
:10589000140037009E82FB001E80FB006101B900EE
:1058A0004218DD00CE10DE00810070004210DD00E5
:1058B000024023000200400010409000B1C3B3003A
:1058C000014260006129B9004218DD00CE10DE00FF
:1058D000810070004210DD00024023000200400001
:1058E00014409800A03C2300904078006FC06000F6
:1058F0000080FB00CF80DE00F200200003002000CB
:10590000820F5000838F580093013E000060010019
:105910000F0037001200370015003700180037005D
:105920001B0037001E00370021003700240037001D
:10593000270037002A0037002D00370030003700DD
:105940003300370036003700390037003C0037009D
:10595000502580000010A1005025880081013700EB
:10596000602580000010A100602588007D013700BF
:10597000702580000010A100702588007901370093
:10598000802580000010A100802588007501370067
:10599000902580000010A10090258800710137003B
:1059A000A02580000010A100A02588006D0137000F
:1059B000B02580000010A100B025880069013700E3
:1059C000C02580000010A100C025880065013700B7
:1059D000D02580000010A100D0258800610137008B
:1059E000E02580000010A100E02588005D0137005F
:1059F000F02580000010A100F02588005901370033
:105A0000002680000010A100002688005501370004
:105A1000102680000010A1001026880051013700D8
:105A2000202680000010A100202688004D013700AC
:105A3000302680000010A100302688004901370080
:105A4000402680000010A1004026880000000000D1
:105A500044013700A03C2300904078006FC06000F4
:105A60000080FB00CF80DE0062392300000041008F
:105A7000104F7800A03C2300904078006FC0600079
:105A80008081FB000080FB00CF80DE0062392300B4
:105A90000000410010407800004178000204A2009C
:105AA0006118B90063392300008041000248780082
:105AB000A03C2300904078006FC060000080FB0095
:105AC000CF80DE006239230000004100104F7800D3
:105AD000A03C2300904078006FC060000080FB0075
